{
  "address": "0x68a74BA24A6C4B616a1602306325F3dA682590ef",
  "abi": [
    {
      "inputs": [],
      "stateMutability": "nonpayable",
      "type": "constructor"
    },
    {
      "inputs": [],
      "name": "ERC721EnumerableForbiddenBatchMint",
      "type": "error"
    },
    {
      "inputs": [
        {
          "internalType": "address",
          "name": "sender",
          "type": "address"
        },
        {
          "internalType": "uint256",
          "name": "tokenId",
          "type": "uint256"
        },
        {
          "internalType": "address",
          "name": "owner",
          "type": "address"
        }
      ],
      "name": "ERC721IncorrectOwner",
      "type": "error"
    },
    {
      "inputs": [
        {
          "internalType": "address",
          "name": "operator",
          "type": "address"
        },
        {
          "internalType": "uint256",
          "name": "tokenId",
          "type": "uint256"
        }
      ],
      "name": "ERC721InsufficientApproval",
      "type": "error"
    },
    {
      "inputs": [
        {
          "internalType": "address",
          "name": "approver",
          "type": "address"
        }
      ],
      "name": "ERC721InvalidApprover",
      "type": "error"
    },
    {
      "inputs": [
        {
          "internalType": "address",
          "name": "operator",
          "type": "address"
        }
      ],
      "name": "ERC721InvalidOperator",
      "type": "error"
    },
    {
      "inputs": [
        {
          "internalType": "address",
          "name": "owner",
          "type": "address"
        }
      ],
      "name": "ERC721InvalidOwner",
      "type": "error"
    },
    {
      "inputs": [
        {
          "internalType": "address",
          "name": "receiver",
          "type": "address"
        }
      ],
      "name": "ERC721InvalidReceiver",
      "type": "error"
    },
    {
      "inputs": [
        {
          "internalType": "address",
          "name": "sender",
          "type": "address"
        }
      ],
      "name": "ERC721InvalidSender",
      "type": "error"
    },
    {
      "inputs": [
        {
          "internalType": "uint256",
          "name": "tokenId",
          "type": "uint256"
        }
      ],
      "name": "ERC721NonexistentToken",
      "type": "error"
    },
    {
      "inputs": [
        {
          "internalType": "address",
          "name": "owner",
          "type": "address"
        },
        {
          "internalType": "uint256",
          "name": "index",
          "type": "uint256"
        }
      ],
      "name": "ERC721OutOfBoundsIndex",
      "type": "error"
    },
    {
      "anonymous": false,
      "inputs": [
        {
          "indexed": true,
          "internalType": "address",
          "name": "owner",
          "type": "address"
        },
        {
          "indexed": true,
          "internalType": "address",
          "name": "approved",
          "type": "address"
        },
        {
          "indexed": true,
          "internalType": "uint256",
          "name": "tokenId",
          "type": "uint256"
        }
      ],
      "name": "Approval",
      "type": "event"
    },
    {
      "anonymous": false,
      "inputs": [
        {
          "indexed": true,
          "internalType": "address",
          "name": "owner",
          "type": "address"
        },
        {
          "indexed": true,
          "internalType": "address",
          "name": "operator",
          "type": "address"
        },
        {
          "indexed": false,
          "internalType": "bool",
          "name": "approved",
          "type": "bool"
        }
      ],
      "name": "ApprovalForAll",
      "type": "event"
    },
    {
      "anonymous": false,
      "inputs": [
        {
          "indexed": true,
          "internalType": "address",
          "name": "from",
          "type": "address"
        },
        {
          "indexed": true,
          "internalType": "address",
          "name": "to",
          "type": "address"
        },
        {
          "indexed": true,
          "internalType": "uint256",
          "name": "tokenId",
          "type": "uint256"
        }
      ],
      "name": "Transfer",
      "type": "event"
    },
    {
      "inputs": [
        {
          "internalType": "address",
          "name": "to",
          "type": "address"
        },
        {
          "internalType": "uint256",
          "name": "tokenId",
          "type": "uint256"
        }
      ],
      "name": "approve",
      "outputs": [],
      "stateMutability": "nonpayable",
      "type": "function"
    },
    {
      "inputs": [
        {
          "internalType": "address",
          "name": "owner",
          "type": "address"
        }
      ],
      "name": "balanceOf",
      "outputs": [
        {
          "internalType": "uint256",
          "name": "",
          "type": "uint256"
        }
      ],
      "stateMutability": "view",
      "type": "function"
    },
    {
      "inputs": [],
      "name": "curve",
      "outputs": [
        {
          "internalType": "uint256",
          "name": "",
          "type": "uint256"
        }
      ],
      "stateMutability": "view",
      "type": "function"
    },
    {
      "inputs": [
        {
          "internalType": "uint256",
          "name": "id",
          "type": "uint256"
        }
      ],
      "name": "generateSVGofTokenById",
      "outputs": [
        {
          "internalType": "string",
          "name": "",
          "type": "string"
        }
      ],
      "stateMutability": "view",
      "type": "function"
    },
    {
      "inputs": [
        {
          "internalType": "uint256",
          "name": "tokenId",
          "type": "uint256"
        }
      ],
      "name": "getApproved",
      "outputs": [
        {
          "internalType": "address",
          "name": "",
          "type": "address"
        }
      ],
      "stateMutability": "view",
      "type": "function"
    },
    {
      "inputs": [
        {
          "internalType": "address",
          "name": "owner",
          "type": "address"
        },
        {
          "internalType": "address",
          "name": "operator",
          "type": "address"
        }
      ],
      "name": "isApprovedForAll",
      "outputs": [
        {
          "internalType": "bool",
          "name": "",
          "type": "bool"
        }
      ],
      "stateMutability": "view",
      "type": "function"
    },
    {
      "inputs": [],
      "name": "limit",
      "outputs": [
        {
          "internalType": "uint256",
          "name": "",
          "type": "uint256"
        }
      ],
      "stateMutability": "view",
      "type": "function"
    },
    {
      "inputs": [],
      "name": "mintItem",
      "outputs": [
        {
          "internalType": "uint256",
          "name": "",
          "type": "uint256"
        }
      ],
      "stateMutability": "payable",
      "type": "function"
    },
    {
      "inputs": [],
      "name": "name",
      "outputs": [
        {
          "internalType": "string",
          "name": "",
          "type": "string"
        }
      ],
      "stateMutability": "view",
      "type": "function"
    },
    {
      "inputs": [
        {
          "internalType": "uint256",
          "name": "tokenId",
          "type": "uint256"
        }
      ],
      "name": "ownerOf",
      "outputs": [
        {
          "internalType": "address",
          "name": "",
          "type": "address"
        }
      ],
      "stateMutability": "view",
      "type": "function"
    },
    {
      "inputs": [],
      "name": "price",
      "outputs": [
        {
          "internalType": "uint256",
          "name": "",
          "type": "uint256"
        }
      ],
      "stateMutability": "view",
      "type": "function"
    },
    {
      "inputs": [],
      "name": "recipient",
      "outputs": [
        {
          "internalType": "address payable",
          "name": "",
          "type": "address"
        }
      ],
      "stateMutability": "view",
      "type": "function"
    },
    {
      "inputs": [
        {
          "internalType": "address",
          "name": "from",
          "type": "address"
        },
        {
          "internalType": "address",
          "name": "to",
          "type": "address"
        },
        {
          "internalType": "uint256",
          "name": "tokenId",
          "type": "uint256"
        }
      ],
      "name": "safeTransferFrom",
      "outputs": [],
      "stateMutability": "nonpayable",
      "type": "function"
    },
    {
      "inputs": [
        {
          "internalType": "address",
          "name": "from",
          "type": "address"
        },
        {
          "internalType": "address",
          "name": "to",
          "type": "address"
        },
        {
          "internalType": "uint256",
          "name": "tokenId",
          "type": "uint256"
        },
        {
          "internalType": "bytes",
          "name": "data",
          "type": "bytes"
        }
      ],
      "name": "safeTransferFrom",
      "outputs": [],
      "stateMutability": "nonpayable",
      "type": "function"
    },
    {
      "inputs": [
        {
          "internalType": "address",
          "name": "operator",
          "type": "address"
        },
        {
          "internalType": "bool",
          "name": "approved",
          "type": "bool"
        }
      ],
      "name": "setApprovalForAll",
      "outputs": [],
      "stateMutability": "nonpayable",
      "type": "function"
    },
    {
      "inputs": [
        {
          "internalType": "bytes4",
          "name": "interfaceId",
          "type": "bytes4"
        }
      ],
      "name": "supportsInterface",
      "outputs": [
        {
          "internalType": "bool",
          "name": "",
          "type": "bool"
        }
      ],
      "stateMutability": "view",
      "type": "function"
    },
    {
      "inputs": [],
      "name": "symbol",
      "outputs": [
        {
          "internalType": "string",
          "name": "",
          "type": "string"
        }
      ],
      "stateMutability": "view",
      "type": "function"
    },
    {
      "inputs": [
        {
          "internalType": "uint256",
          "name": "index",
          "type": "uint256"
        }
      ],
      "name": "tokenByIndex",
      "outputs": [
        {
          "internalType": "uint256",
          "name": "",
          "type": "uint256"
        }
      ],
      "stateMutability": "view",
      "type": "function"
    },
    {
      "inputs": [
        {
          "internalType": "address",
          "name": "owner",
          "type": "address"
        },
        {
          "internalType": "uint256",
          "name": "index",
          "type": "uint256"
        }
      ],
      "name": "tokenOfOwnerByIndex",
      "outputs": [
        {
          "internalType": "uint256",
          "name": "",
          "type": "uint256"
        }
      ],
      "stateMutability": "view",
      "type": "function"
    },
    {
      "inputs": [
        {
          "internalType": "uint256",
          "name": "id",
          "type": "uint256"
        }
      ],
      "name": "tokenURI",
      "outputs": [
        {
          "internalType": "string",
          "name": "",
          "type": "string"
        }
      ],
      "stateMutability": "view",
      "type": "function"
    },
    {
      "inputs": [],
      "name": "totalSupply",
      "outputs": [
        {
          "internalType": "uint256",
          "name": "",
          "type": "uint256"
        }
      ],
      "stateMutability": "view",
      "type": "function"
    },
    {
      "inputs": [
        {
          "internalType": "address",
          "name": "from",
          "type": "address"
        },
        {
          "internalType": "address",
          "name": "to",
          "type": "address"
        },
        {
          "internalType": "uint256",
          "name": "tokenId",
          "type": "uint256"
        }
      ],
      "name": "transferFrom",
      "outputs": [],
      "stateMutability": "nonpayable",
      "type": "function"
    }
  ],
  "transactionHash": "0xcca9d66251474b6a1d5c944c01d559ee1593023fe578d56a868e89e7f9c37f6a",
  "args": [],
  "numDeployments": 7,
  "solcInputHash": "e11c9e1ed5dd9c54c25eb54b22bcb81b",
  "bytecode": "0x60806040526201f000600b5566038d7ea4c68000600d553480156200002357600080fd5b506040518060400160405280600b81526020017f4d61684a6f6e67436f696e0000000000000000000000000000000000000000008152506040518060400160405280600381526020017f4d4a4300000000000000000000000000000000000000000000000000000000008152508160009081620000a1919062000336565b508060019081620000b3919062000336565b5050506200041d565b600081519050919050565b7f4e487b7100000000000000000000000000000000000000000000000000000000600052604160045260246000fd5b7f4e487b7100000000000000000000000000000000000000000000000000000000600052602260045260246000fd5b600060028204905060018216806200013e57607f821691505b602082108103620001545762000153620000f6565b5b50919050565b60008190508160005260206000209050919050565b60006020601f8301049050919050565b600082821b905092915050565b600060088302620001be7fffffffffffffffffffffffffffffffffffffffffffffffffffffffffffffffff826200017f565b620001ca86836200017f565b95508019841693508086168417925050509392505050565b6000819050919050565b6000819050919050565b600062000217620002116200020b84620001e2565b620001ec565b620001e2565b9050919050565b6000819050919050565b6200023383620001f6565b6200024b62000242826200021e565b8484546200018c565b825550505050565b600090565b6200026262000253565b6200026f81848462000228565b505050565b5b8181101562000297576200028b60008262000258565b60018101905062000275565b5050565b601f821115620002e657620002b0816200015a565b620002bb846200016f565b81016020851015620002cb578190505b620002e3620002da856200016f565b83018262000274565b50505b505050565b600082821c905092915050565b60006200030b60001984600802620002eb565b1980831691505092915050565b6000620003268383620002f8565b9150826002028217905092915050565b6200034182620000bc565b67ffffffffffffffff8111156200035d576200035c620000c7565b5b62000369825462000125565b620003768282856200029b565b600060209050601f831160018114620003ae576000841562000399578287015190505b620003a5858262000318565b86555062000415565b601f198416620003be866200015a565b60005b82811015620003e857848901518255600182019150602085019450602081019050620003c1565b8683101562000408578489015162000404601f891682620002f8565b8355505b6001600288020188555050505b505050505050565b613c66806200042d6000396000f3fe6080604052600436106101355760003560e01c806370a08231116100ab578063a22cb4651161006f578063a22cb46514610462578063a4d66daf1461048b578063b88d4fde146104b6578063c87b56dd146104df578063e985e9c51461051c578063eb93406b1461055957610135565b806370a08231146103675780637165485d146103a4578063719b7c1d146103cf57806395d89b411461040c578063a035b1fe1461043757610135565b806323b872dd116100fd57806323b872dd146102335780632f745c591461025c57806342842e0e146102995780634f6ccce7146102c25780636352211e146102ff57806366d003ac1461033c57610135565b806301ffc9a71461013a57806306fdde0314610177578063081812fc146101a2578063095ea7b3146101df57806318160ddd14610208575b600080fd5b34801561014657600080fd5b50610161600480360381019061015c91906127cb565b610577565b60405161016e9190612813565b60405180910390f35b34801561018357600080fd5b5061018c6105f1565b60405161019991906128be565b60405180910390f35b3480156101ae57600080fd5b506101c960048036038101906101c49190612916565b610683565b6040516101d69190612984565b60405180910390f35b3480156101eb57600080fd5b50610206600480360381019061020191906129cb565b61069f565b005b34801561021457600080fd5b5061021d6106b5565b60405161022a9190612a1a565b60405180910390f35b34801561023f57600080fd5b5061025a60048036038101906102559190612a35565b6106c2565b005b34801561026857600080fd5b50610283600480360381019061027e91906129cb565b6107c4565b6040516102909190612a1a565b60405180910390f35b3480156102a557600080fd5b506102c060048036038101906102bb9190612a35565b61086d565b005b3480156102ce57600080fd5b506102e960048036038101906102e49190612916565b61088d565b6040516102f69190612a1a565b60405180910390f35b34801561030b57600080fd5b5061032660048036038101906103219190612916565b610903565b6040516103339190612984565b60405180910390f35b34801561034857600080fd5b50610351610915565b60405161035e9190612aa9565b60405180910390f35b34801561037357600080fd5b5061038e60048036038101906103899190612ac4565b61092d565b60405161039b9190612a1a565b60405180910390f35b3480156103b057600080fd5b506103b96109e7565b6040516103c69190612a1a565b60405180910390f35b3480156103db57600080fd5b506103f660048036038101906103f19190612916565b6109ed565b60405161040391906128be565b60405180910390f35b34801561041857600080fd5b50610421610a69565b60405161042e91906128be565b60405180910390f35b34801561044357600080fd5b5061044c610afb565b6040516104599190612a1a565b60405180910390f35b34801561046e57600080fd5b5061048960048036038101906104849190612b1d565b610b01565b005b34801561049757600080fd5b506104a0610b17565b6040516104ad9190612a1a565b60405180910390f35b3480156104c257600080fd5b506104dd60048036038101906104d89190612c92565b610b1d565b005b3480156104eb57600080fd5b5061050660048036038101906105019190612916565b610b3a565b60405161051391906128be565b60405180910390f35b34801561052857600080fd5b50610543600480360381019061053e9190612d15565b610cbc565b6040516105509190612813565b60405180910390f35b610561610d50565b60405161056e9190612a1a565b60405180910390f35b60007f780e9d63000000000000000000000000000000000000000000000000000000007bffffffffffffffffffffffffffffffffffffffffffffffffffffffff1916827bffffffffffffffffffffffffffffffffffffffffffffffffffffffff191614806105ea57506105e982610f73565b5b9050919050565b60606000805461060090612d84565b80601f016020809104026020016040519081016040528092919081815260200182805461062c90612d84565b80156106795780601f1061064e57610100808354040283529160200191610679565b820191906000526020600020905b81548152906001019060200180831161065c57829003601f168201915b5050505050905090565b600061068e82611055565b50610698826110dd565b9050919050565b6106b182826106ac61111a565b611122565b5050565b6000600880549050905090565b600073ffffffffffffffffffffffffffffffffffffffff168273ffffffffffffffffffffffffffffffffffffffff16036107345760006040517f64a0ae9200000000000000000000000000000000000000000000000000000000815260040161072b9190612984565b60405180910390fd5b6000610748838361074361111a565b611134565b90508373ffffffffffffffffffffffffffffffffffffffff168173ffffffffffffffffffffffffffffffffffffffff16146107be578382826040517f64283d7b0000000000000000000000000000000000000000000000000000000081526004016107b593929190612db5565b60405180910390fd5b50505050565b60006107cf8361092d565b82106108145782826040517fa57d13dc00000000000000000000000000000000000000000000000000000000815260040161080b929190612dec565b60405180910390fd5b600660008473ffffffffffffffffffffffffffffffffffffffff1673ffffffffffffffffffffffffffffffffffffffff168152602001908152602001600020600083815260200190815260200160002054905092915050565b61088883838360405180602001604052806000815250610b1d565b505050565b60006108976106b5565b82106108dd576000826040517fa57d13dc0000000000000000000000000000000000000000000000000000000081526004016108d4929190612dec565b60405180910390fd5b600882815481106108f1576108f0612e15565b5b90600052602060002001549050919050565b600061090e82611055565b9050919050565b73a81a6a910fed20374361b35c451a4a44f86ced4681565b60008073ffffffffffffffffffffffffffffffffffffffff168273ffffffffffffffffffffffffffffffffffffffff16036109a05760006040517f89c62b640000000000000000000000000000000000000000000000000000000081526004016109979190612984565b60405180910390fd5b600360008373ffffffffffffffffffffffffffffffffffffffff1673ffffffffffffffffffffffffffffffffffffffff168152602001908152602001600020549050919050565b6103ea81565b60606000610a1a600c600085815260200190815260200160002054600b54610a159190612e73565b611251565b604051602001610a2a9190612f7b565b6040516020818303038152906040529050600081604051602001610a4e919061322e565b60405160208183030381529060405290508092505050919050565b606060018054610a7890612d84565b80601f0160208091040260200160405190810160405280929190818152602001828054610aa490612d84565b8015610af15780601f10610ac657610100808354040283529160200191610af1565b820191906000526020600020905b815481529060010190602001808311610ad457829003601f168201915b5050505050905090565b600d5481565b610b13610b0c61111a565b838361131f565b5050565b610e9081565b610b288484846106c2565b610b348484848461148e565b50505050565b6060600073ffffffffffffffffffffffffffffffffffffffff16610b5d83611645565b73ffffffffffffffffffffffffffffffffffffffff1603610bb3576040517f08c379a0000000000000000000000000000000000000000000000000000000008152600401610baa906132c8565b60405180910390fd5b6000610bbe83611251565b604051602001610bce9190613334565b6040516020818303038152906040529050600080610beb85611682565b91509150600081610bfb84611251565b604051602001610c0c92919061343a565b60405160208183030381529060405290506000610c30610c2b886109ed565b611894565b9050610c918583610c696014610c458c610903565b73ffffffffffffffffffffffffffffffffffffffff16611a0c90919063ffffffff16565b84604051602001610c7d9493929190613647565b604051602081830303815290604052611894565b604051602001610ca19190613713565b60405160208183030381529060405295505050505050919050565b6000600560008473ffffffffffffffffffffffffffffffffffffffff1673ffffffffffffffffffffffffffffffffffffffff16815260200190815260200160002060008373ffffffffffffffffffffffffffffffffffffffff1673ffffffffffffffffffffffffffffffffffffffff16815260200190815260200160002060009054906101000a900460ff16905092915050565b6000610e90600a5410610d98576040517f08c379a0000000000000000000000000000000000000000000000000000000008152600401610d8f90613781565b60405180910390fd5b600d54341015610ddd576040517f08c379a0000000000000000000000000000000000000000000000000000000008152600401610dd4906137ed565b60405180910390fd5b6103e86103ea600d54610df0919061380d565b610dfa919061387e565b600d819055506001600a6000828254610e139190612e73565b92505081905550610e2633600a54611c05565b6000600a54600143610e3891906138af565b403330604051602001610e4e9493929190613977565b604051602081830303815290604052805190602001209050602981600060208110610e7c57610e7b612e15565b5b1a60f81b60f81c610e8d91906139d2565b60ff16600c6000600a54815260200190815260200160002081905550600073a81a6a910fed20374361b35c451a4a44f86ced4673ffffffffffffffffffffffffffffffffffffffff1634604051610ee390613a34565b60006040518083038185875af1925050503d8060008114610f20576040519150601f19603f3d011682016040523d82523d6000602084013e610f25565b606091505b5050905080610f69576040517f08c379a0000000000000000000000000000000000000000000000000000000008152600401610f6090613a95565b60405180910390fd5b600a549250505090565b60007f80ac58cd000000000000000000000000000000000000000000000000000000007bffffffffffffffffffffffffffffffffffffffffffffffffffffffff1916827bffffffffffffffffffffffffffffffffffffffffffffffffffffffff1916148061103e57507f5b5e139f000000000000000000000000000000000000000000000000000000007bffffffffffffffffffffffffffffffffffffffffffffffffffffffff1916827bffffffffffffffffffffffffffffffffffffffffffffffffffffffff1916145b8061104e575061104d82611c23565b5b9050919050565b60008061106183611645565b9050600073ffffffffffffffffffffffffffffffffffffffff168173ffffffffffffffffffffffffffffffffffffffff16036110d457826040517f7e2732890000000000000000000000000000000000000000000000000000000081526004016110cb9190612a1a565b60405180910390fd5b80915050919050565b60006004600083815260200190815260200160002060009054906101000a900473ffffffffffffffffffffffffffffffffffffffff169050919050565b600033905090565b61112f8383836001611c8d565b505050565b600080611142858585611e52565b9050600073ffffffffffffffffffffffffffffffffffffffff168173ffffffffffffffffffffffffffffffffffffffff1603611186576111818461206c565b6111c5565b8473ffffffffffffffffffffffffffffffffffffffff168173ffffffffffffffffffffffffffffffffffffffff16146111c4576111c381856120b5565b5b5b600073ffffffffffffffffffffffffffffffffffffffff168573ffffffffffffffffffffffffffffffffffffffff16036112075761120284612216565b611246565b8473ffffffffffffffffffffffffffffffffffffffff168173ffffffffffffffffffffffffffffffffffffffff16146112455761124485856122e7565b5b5b809150509392505050565b60606000600161126084612372565b01905060008167ffffffffffffffff81111561127f5761127e612b67565b5b6040519080825280601f01601f1916602001820160405280156112b15781602001600182028036833780820191505090505b509050600082602001820190505b600115611314578080600190039150507f3031323334353637383961626364656600000000000000000000000000000000600a86061a8153600a85816113085761130761384f565b5b049450600085036112bf575b819350505050919050565b600073ffffffffffffffffffffffffffffffffffffffff168273ffffffffffffffffffffffffffffffffffffffff160361139057816040517f5b08ba180000000000000000000000000000000000000000000000000000000081526004016113879190612984565b60405180910390fd5b80600560008573ffffffffffffffffffffffffffffffffffffffff1673ffffffffffffffffffffffffffffffffffffffff16815260200190815260200160002060008473ffffffffffffffffffffffffffffffffffffffff1673ffffffffffffffffffffffffffffffffffffffff16815260200190815260200160002060006101000a81548160ff0219169083151502179055508173ffffffffffffffffffffffffffffffffffffffff168373ffffffffffffffffffffffffffffffffffffffff167f17307eab39ab6107e8899845ad3d59bd9653f200f220920489ca2b5937696c31836040516114819190612813565b60405180910390a3505050565b60008373ffffffffffffffffffffffffffffffffffffffff163b111561163f578273ffffffffffffffffffffffffffffffffffffffff1663150b7a026114d261111a565b8685856040518563ffffffff1660e01b81526004016114f49493929190613b0a565b6020604051808303816000875af192505050801561153057506040513d601f19601f8201168201806040525081019061152d9190613b6b565b60015b6115b4573d8060008114611560576040519150601f19603f3d011682016040523d82523d6000602084013e611565565b606091505b5060008151036115ac57836040517f64a0ae920000000000000000000000000000000000000000000000000000000081526004016115a39190612984565b60405180910390fd5b805181602001fd5b63150b7a0260e01b7bffffffffffffffffffffffffffffffffffffffffffffffffffffffff1916817bffffffffffffffffffffffffffffffffffffffffffffffffffffffff19161461163d57836040517f64a0ae920000000000000000000000000000000000000000000000000000000081526004016116349190612984565b60405180910390fd5b505b50505050565b60006002600083815260200190815260200160002060009054906101000a900473ffffffffffffffffffffffffffffffffffffffff169050919050565b600060606000600c6000858152602001908152602001600020549050600681116116f3576001816116b39190612e73565b6040518060400160405280600481526020017f46656e6700000000000000000000000000000000000000000000000000000000815250925092505061188f565b600f81116117485760068161170891906138af565b6040518060400160405280600381526020017f57616e0000000000000000000000000000000000000000000000000000000000815250925092505061188f565b601881116117a957600960068261175f91906138af565b61176991906138af565b6040518060400160405280600481526020017f5469616f00000000000000000000000000000000000000000000000000000000815250925092505061188f565b60218111611815576009806006836117c191906138af565b6117cb91906138af565b6117d591906138af565b6040518060400160405280600481526020017f42696e6700000000000000000000000000000000000000000000000000000000815250925092505061188f565b6029811161188d57600980600960068461182f91906138af565b61183991906138af565b61184391906138af565b61184d91906138af565b6040518060400160405280600381526020017f4875610000000000000000000000000000000000000000000000000000000000815250925092505061188f565b505b915091565b606060008251036118b657604051806020016040528060008152509050611a07565b6000604051806060016040528060408152602001613bf160409139905060006003600285516118e59190612e73565b6118ef919061387e565b60046118fb919061380d565b9050600060208261190c9190612e73565b67ffffffffffffffff81111561192557611924612b67565b5b6040519080825280601f01601f1916602001820160405280156119575781602001600182028036833780820191505090505b509050818152600183018586518101602084015b818310156119c6576003830192508251603f8160121c168501518253600182019150603f81600c1c168501518253600182019150603f8160061c168501518253600182019150603f811685015182536001820191505061196b565b6003895106600181146119e057600281146119f0576119fb565b613d3d60f01b60028303526119fb565b603d60f81b60018303525b50505050508093505050505b919050565b606060006002836002611a1f919061380d565b611a299190612e73565b67ffffffffffffffff811115611a4257611a41612b67565b5b6040519080825280601f01601f191660200182016040528015611a745781602001600182028036833780820191505090505b5090507f300000000000000000000000000000000000000000000000000000000000000081600081518110611aac57611aab612e15565b5b60200101907effffffffffffffffffffffffffffffffffffffffffffffffffffffffffffff1916908160001a9053507f780000000000000000000000000000000000000000000000000000000000000081600181518110611b1057611b0f612e15565b5b60200101907effffffffffffffffffffffffffffffffffffffffffffffffffffffffffffff1916908160001a90535060006001846002611b50919061380d565b611b5a9190612e73565b90505b6001811115611bfa577f3031323334353637383961626364656600000000000000000000000000000000600f861660108110611b9c57611b9b612e15565b5b1a60f81b828281518110611bb357611bb2612e15565b5b60200101907effffffffffffffffffffffffffffffffffffffffffffffffffffffffffffff1916908160001a905350600485901c945080611bf390613b98565b9050611b5d565b508091505092915050565b611c1f8282604051806020016040528060008152506124c5565b5050565b60007f01ffc9a7000000000000000000000000000000000000000000000000000000007bffffffffffffffffffffffffffffffffffffffffffffffffffffffff1916827bffffffffffffffffffffffffffffffffffffffffffffffffffffffff1916149050919050565b8080611cc65750600073ffffffffffffffffffffffffffffffffffffffff168273ffffffffffffffffffffffffffffffffffffffff1614155b15611dfa576000611cd684611055565b9050600073ffffffffffffffffffffffffffffffffffffffff168373ffffffffffffffffffffffffffffffffffffffff1614158015611d4157508273ffffffffffffffffffffffffffffffffffffffff168173ffffffffffffffffffffffffffffffffffffffff1614155b8015611d545750611d528184610cbc565b155b15611d9657826040517fa9fbf51f000000000000000000000000000000000000000000000000000000008152600401611d8d9190612984565b60405180910390fd5b8115611df857838573ffffffffffffffffffffffffffffffffffffffff168273ffffffffffffffffffffffffffffffffffffffff167f8c5be1e5ebec7d5bd14f71427d1e84f3dd0314c0f7b2291e5b200ac8c7c3b92560405160405180910390a45b505b836004600085815260200190815260200160002060006101000a81548173ffffffffffffffffffffffffffffffffffffffff021916908373ffffffffffffffffffffffffffffffffffffffff16021790555050505050565b600080611e5e84611645565b9050600073ffffffffffffffffffffffffffffffffffffffff168373ffffffffffffffffffffffffffffffffffffffff1614611ea057611e9f8184866124e1565b5b600073ffffffffffffffffffffffffffffffffffffffff168173ffffffffffffffffffffffffffffffffffffffff1614611f3157611ee2600085600080611c8d565b6001600360008373ffffffffffffffffffffffffffffffffffffffff1673ffffffffffffffffffffffffffffffffffffffff168152602001908152602001600020600082825403925050819055505b600073ffffffffffffffffffffffffffffffffffffffff168573ffffffffffffffffffffffffffffffffffffffff1614611fb4576001600360008773ffffffffffffffffffffffffffffffffffffffff1673ffffffffffffffffffffffffffffffffffffffff168152602001908152602001600020600082825401925050819055505b846002600086815260200190815260200160002060006101000a81548173ffffffffffffffffffffffffffffffffffffffff021916908373ffffffffffffffffffffffffffffffffffffffff160217905550838573ffffffffffffffffffffffffffffffffffffffff168273ffffffffffffffffffffffffffffffffffffffff167fddf252ad1be2c89b69c2b068fc378daa952ba7f163c4a11628f55a4df523b3ef60405160405180910390a4809150509392505050565b6008805490506009600083815260200190815260200160002081905550600881908060018154018082558091505060019003906000526020600020016000909190919091505550565b60006120c08361092d565b90506000600760008481526020019081526020016000205490508181146121a5576000600660008673ffffffffffffffffffffffffffffffffffffffff1673ffffffffffffffffffffffffffffffffffffffff168152602001908152602001600020600084815260200190815260200160002054905080600660008773ffffffffffffffffffffffffffffffffffffffff1673ffffffffffffffffffffffffffffffffffffffff168152602001908152602001600020600084815260200190815260200160002081905550816007600083815260200190815260200160002081905550505b6007600084815260200190815260200160002060009055600660008573ffffffffffffffffffffffffffffffffffffffff1673ffffffffffffffffffffffffffffffffffffffff16815260200190815260200160002060008381526020019081526020016000206000905550505050565b6000600160088054905061222a91906138af565b905060006009600084815260200190815260200160002054905060006008838154811061225a57612259612e15565b5b90600052602060002001549050806008838154811061227c5761227b612e15565b5b9060005260206000200181905550816009600083815260200190815260200160002081905550600960008581526020019081526020016000206000905560088054806122cb576122ca613bc1565b5b6001900381819060005260206000200160009055905550505050565b600060016122f48461092d565b6122fe91906138af565b905081600660008573ffffffffffffffffffffffffffffffffffffffff1673ffffffffffffffffffffffffffffffffffffffff168152602001908152602001600020600083815260200190815260200160002081905550806007600084815260200190815260200160002081905550505050565b600080600090507a184f03e93ff9f4daa797ed6e38ed64bf6a1f01000000000000000083106123d0577a184f03e93ff9f4daa797ed6e38ed64bf6a1f01000000000000000083816123c6576123c561384f565b5b0492506040810190505b6d04ee2d6d415b85acef8100000000831061240d576d04ee2d6d415b85acef810000000083816124035761240261384f565b5b0492506020810190505b662386f26fc10000831061243c57662386f26fc1000083816124325761243161384f565b5b0492506010810190505b6305f5e1008310612465576305f5e100838161245b5761245a61384f565b5b0492506008810190505b612710831061248a5761271083816124805761247f61384f565b5b0492506004810190505b606483106124ad57606483816124a3576124a261384f565b5b0492506002810190505b600a83106124bc576001810190505b80915050919050565b6124cf83836125a5565b6124dc600084848461148e565b505050565b6124ec83838361269e565b6125a057600073ffffffffffffffffffffffffffffffffffffffff168373ffffffffffffffffffffffffffffffffffffffff160361256157806040517f7e2732890000000000000000000000000000000000000000000000000000000081526004016125589190612a1a565b60405180910390fd5b81816040517f177e802f000000000000000000000000000000000000000000000000000000008152600401612597929190612dec565b60405180910390fd5b505050565b600073ffffffffffffffffffffffffffffffffffffffff168273ffffffffffffffffffffffffffffffffffffffff16036126175760006040517f64a0ae9200000000000000000000000000000000000000000000000000000000815260040161260e9190612984565b60405180910390fd5b600061262583836000611134565b9050600073ffffffffffffffffffffffffffffffffffffffff168173ffffffffffffffffffffffffffffffffffffffff16146126995760006040517f73c6ac6e0000000000000000000000000000000000000000000000000000000081526004016126909190612984565b60405180910390fd5b505050565b60008073ffffffffffffffffffffffffffffffffffffffff168373ffffffffffffffffffffffffffffffffffffffff161415801561275657508273ffffffffffffffffffffffffffffffffffffffff168473ffffffffffffffffffffffffffffffffffffffff16148061271757506127168484610cbc565b5b8061275557508273ffffffffffffffffffffffffffffffffffffffff1661273d836110dd565b73ffffffffffffffffffffffffffffffffffffffff16145b5b90509392505050565b6000604051905090565b600080fd5b600080fd5b60007fffffffff0000000000000000000000000000000000000000000000000000000082169050919050565b6127a881612773565b81146127b357600080fd5b50565b6000813590506127c58161279f565b92915050565b6000602082840312156127e1576127e0612769565b5b60006127ef848285016127b6565b91505092915050565b60008115159050919050565b61280d816127f8565b82525050565b60006020820190506128286000830184612804565b92915050565b600081519050919050565b600082825260208201905092915050565b60005b8381101561286857808201518184015260208101905061284d565b60008484015250505050565b6000601f19601f8301169050919050565b60006128908261282e565b61289a8185612839565b93506128aa81856020860161284a565b6128b381612874565b840191505092915050565b600060208201905081810360008301526128d88184612885565b905092915050565b6000819050919050565b6128f3816128e0565b81146128fe57600080fd5b50565b600081359050612910816128ea565b92915050565b60006020828403121561292c5761292b612769565b5b600061293a84828501612901565b91505092915050565b600073ffffffffffffffffffffffffffffffffffffffff82169050919050565b600061296e82612943565b9050919050565b61297e81612963565b82525050565b60006020820190506129996000830184612975565b92915050565b6129a881612963565b81146129b357600080fd5b50565b6000813590506129c58161299f565b92915050565b600080604083850312156129e2576129e1612769565b5b60006129f0858286016129b6565b9250506020612a0185828601612901565b9150509250929050565b612a14816128e0565b82525050565b6000602082019050612a2f6000830184612a0b565b92915050565b600080600060608486031215612a4e57612a4d612769565b5b6000612a5c868287016129b6565b9350506020612a6d868287016129b6565b9250506040612a7e86828701612901565b9150509250925092565b6000612a9382612943565b9050919050565b612aa381612a88565b82525050565b6000602082019050612abe6000830184612a9a565b92915050565b600060208284031215612ada57612ad9612769565b5b6000612ae8848285016129b6565b91505092915050565b612afa816127f8565b8114612b0557600080fd5b50565b600081359050612b1781612af1565b92915050565b60008060408385031215612b3457612b33612769565b5b6000612b42858286016129b6565b9250506020612b5385828601612b08565b9150509250929050565b600080fd5b600080fd5b7f4e487b7100000000000000000000000000000000000000000000000000000000600052604160045260246000fd5b612b9f82612874565b810181811067ffffffffffffffff82111715612bbe57612bbd612b67565b5b80604052505050565b6000612bd161275f565b9050612bdd8282612b96565b919050565b600067ffffffffffffffff821115612bfd57612bfc612b67565b5b612c0682612874565b9050602081019050919050565b82818337600083830152505050565b6000612c35612c3084612be2565b612bc7565b905082815260208101848484011115612c5157612c50612b62565b5b612c5c848285612c13565b509392505050565b600082601f830112612c7957612c78612b5d565b5b8135612c89848260208601612c22565b91505092915050565b60008060008060808587031215612cac57612cab612769565b5b6000612cba878288016129b6565b9450506020612ccb878288016129b6565b9350506040612cdc87828801612901565b925050606085013567ffffffffffffffff811115612cfd57612cfc61276e565b5b612d0987828801612c64565b91505092959194509250565b60008060408385031215612d2c57612d2b612769565b5b6000612d3a858286016129b6565b9250506020612d4b858286016129b6565b9150509250929050565b7f4e487b7100000000000000000000000000000000000000000000000000000000600052602260045260246000fd5b60006002820490506001821680612d9c57607f821691505b602082108103612daf57612dae612d55565b5b50919050565b6000606082019050612dca6000830186612975565b612dd76020830185612a0b565b612de46040830184612975565b949350505050565b6000604082019050612e016000830185612975565b612e0e6020830184612a0b565b9392505050565b7f4e487b7100000000000000000000000000000000000000000000000000000000600052603260045260246000fd5b7f4e487b7100000000000000000000000000000000000000000000000000000000600052601160045260246000fd5b6000612e7e826128e0565b9150612e89836128e0565b9250828201905080821115612ea157612ea0612e44565b5b92915050565b600081905092915050565b7f2623000000000000000000000000000000000000000000000000000000000000600082015250565b6000612ee8600283612ea7565b9150612ef382612eb2565b600282019050919050565b6000612f098261282e565b612f138185612ea7565b9350612f2381856020860161284a565b80840191505092915050565b7f3b00000000000000000000000000000000000000000000000000000000000000600082015250565b6000612f65600183612ea7565b9150612f7082612f2f565b600182019050919050565b6000612f8682612edb565b9150612f928284612efe565b9150612f9d82612f58565b915081905092915050565b7f3c7376672077696474683d2231303022206865696768743d223130302220786d60008201527f6c6e733d22687474703a2f2f7777772e77332e6f72672f323030302f7376672260208201527f3e00000000000000000000000000000000000000000000000000000000000000604082015250565b600061302a604183612ea7565b915061303582612fa8565b604182019050919050565b7f3c7465787420783d2235302220793d2238302220666f6e742d73697a653d223860008201527f352220746578742d616e63686f723d226d6964646c65222066696c6c2d6f706160208201527f636974793d22696e6865726974223e0000000000000000000000000000000000604082015250565b60006130c2604f83612ea7565b91506130cd82613040565b604f82019050919050565b7f3c616e696d617465206174747269627574654e616d653d2266696c6c2d6f706160008201527f63697479222076616c7565733d22302e353b313b302e3522206475723d22327360208201527f2220626567696e3d2230732220726570656174436f756e743d22696e6465666960408201527f6e69746522202f3e000000000000000000000000000000000000000000000000606082015250565b6000613180606883612ea7565b915061318b826130d8565b606882019050919050565b7f3c2f746578743e00000000000000000000000000000000000000000000000000600082015250565b60006131cc600783612ea7565b91506131d782613196565b600782019050919050565b7f3c2f7376673e0000000000000000000000000000000000000000000000000000600082015250565b6000613218600683612ea7565b9150613223826131e2565b600682019050919050565b60006132398261301d565b9150613244826130b5565b915061324f82613173565b915061325b8284612efe565b9150613266826131bf565b91506132718261320b565b915081905092915050565b7f6e6f742065786973740000000000000000000000000000000000000000000000600082015250565b60006132b2600983612839565b91506132bd8261327c565b602082019050919050565b600060208201905081810360008301526132e1816132a5565b9050919050565b7f4d61684a6f6e67436f696e202300000000000000000000000000000000000000600082015250565b600061331e600d83612ea7565b9150613329826132e8565b600d82019050919050565b600061333f82613311565b915061334b8284612efe565b915081905092915050565b7f54686973204d61684a6f6e67436f696e20697320746865200000000000000000600082015250565b600061338c601883612ea7565b915061339782613356565b601882019050919050565b7f20776974682061206e756d626572206f66200000000000000000000000000000600082015250565b60006133d8601283612ea7565b91506133e3826133a2565b601282019050919050565b7f2021212100000000000000000000000000000000000000000000000000000000600082015250565b6000613424600483612ea7565b915061342f826133ee565b600482019050919050565b60006134458261337f565b91506134518285612efe565b915061345c826133cb565b91506134688284612efe565b915061347382613417565b91508190509392505050565b7f7b226e616d65223a220000000000000000000000000000000000000000000000600082015250565b60006134b5600983612ea7565b91506134c08261347f565b600982019050919050565b7f222c20226465736372697074696f6e223a220000000000000000000000000000600082015250565b6000613501601283612ea7565b915061350c826134cb565b601282019050919050565b7f222c20226f776e6572223a220000000000000000000000000000000000000000600082015250565b600061354d600c83612ea7565b915061355882613517565b600c82019050919050565b7f222c2022696d616765223a202200000000000000000000000000000000000000600082015250565b6000613599600d83612ea7565b91506135a482613563565b600d82019050919050565b7f646174613a696d6167652f7376672b786d6c3b6261736536342c000000000000600082015250565b60006135e5601a83612ea7565b91506135f0826135af565b601a82019050919050565b7f227d000000000000000000000000000000000000000000000000000000000000600082015250565b6000613631600283612ea7565b915061363c826135fb565b600282019050919050565b6000613652826134a8565b915061365e8287612efe565b9150613669826134f4565b91506136758286612efe565b915061368082613540565b915061368c8285612efe565b91506136978261358c565b91506136a2826135d8565b91506136ae8284612efe565b91506136b982613624565b915081905095945050505050565b7f646174613a6170706c69636174696f6e2f6a736f6e3b6261736536342c000000600082015250565b60006136fd601d83612ea7565b9150613708826136c7565b601d82019050919050565b600061371e826136f0565b915061372a8284612efe565b915081905092915050565b7f444f4e45204d494e54494e470000000000000000000000000000000000000000600082015250565b600061376b600c83612839565b915061377682613735565b602082019050919050565b6000602082019050818103600083015261379a8161375e565b9050919050565b7f4e4f5420454e4f55474800000000000000000000000000000000000000000000600082015250565b60006137d7600a83612839565b91506137e2826137a1565b602082019050919050565b60006020820190508181036000830152613806816137ca565b9050919050565b6000613818826128e0565b9150613823836128e0565b9250828202613831816128e0565b9150828204841483151761384857613847612e44565b5b5092915050565b7f4e487b7100000000000000000000000000000000000000000000000000000000600052601260045260246000fd5b6000613889826128e0565b9150613894836128e0565b9250826138a4576138a361384f565b5b828204905092915050565b60006138ba826128e0565b91506138c5836128e0565b92508282039050818111156138dd576138dc612e44565b5b92915050565b6000819050919050565b6138fe6138f9826128e0565b6138e3565b82525050565b6000819050919050565b6000819050919050565b61392961392482613904565b61390e565b82525050565b60008160601b9050919050565b60006139478261392f565b9050919050565b60006139598261393c565b9050919050565b61397161396c82612963565b61394e565b82525050565b600061398382876138ed565b6020820191506139938286613918565b6020820191506139a38285613960565b6014820191506139b38284613960565b60148201915081905095945050505050565b600060ff82169050919050565b60006139dd826139c5565b91506139e8836139c5565b9250826139f8576139f761384f565b5b828206905092915050565b600081905092915050565b50565b6000613a1e600083613a03565b9150613a2982613a0e565b600082019050919050565b6000613a3f82613a11565b9150819050919050565b7f636f756c64206e6f742073656e64000000000000000000000000000000000000600082015250565b6000613a7f600e83612839565b9150613a8a82613a49565b602082019050919050565b60006020820190508181036000830152613aae81613a72565b9050919050565b600081519050919050565b600082825260208201905092915050565b6000613adc82613ab5565b613ae68185613ac0565b9350613af681856020860161284a565b613aff81612874565b840191505092915050565b6000608082019050613b1f6000830187612975565b613b2c6020830186612975565b613b396040830185612a0b565b8181036060830152613b4b8184613ad1565b905095945050505050565b600081519050613b658161279f565b92915050565b600060208284031215613b8157613b80612769565b5b6000613b8f84828501613b56565b91505092915050565b6000613ba3826128e0565b915060008203613bb657613bb5612e44565b5b600182039050919050565b7f4e487b7100000000000000000000000000000000000000000000000000000000600052603160045260246000fdfe4142434445464748494a4b4c4d4e4f505152535455565758595a6162636465666768696a6b6c6d6e6f707172737475767778797a303132333435363738392b2fa26469706673582212202671d356aa1d0fc528b993a0d045381113885db1241daed896404cd67549880764736f6c63430008140033",
  "devdoc": {
    "errors": {
      "ERC721EnumerableForbiddenBatchMint()": [
        {
          "details": "Batch mint is not allowed."
        }
      ],
      "ERC721IncorrectOwner(address,uint256,address)": [
        {
          "details": "Indicates an error related to the ownership over a particular token. Used in transfers.",
          "params": {
            "owner": "Address of the current owner of a token.",
            "sender": "Address whose tokens are being transferred.",
            "tokenId": "Identifier number of a token."
          }
        }
      ],
      "ERC721InsufficientApproval(address,uint256)": [
        {
          "details": "Indicates a failure with the `operator`s approval. Used in transfers.",
          "params": {
            "operator": "Address that may be allowed to operate on tokens without being their owner.",
            "tokenId": "Identifier number of a token."
          }
        }
      ],
      "ERC721InvalidApprover(address)": [
        {
          "details": "Indicates a failure with the `approver` of a token to be approved. Used in approvals.",
          "params": {
            "approver": "Address initiating an approval operation."
          }
        }
      ],
      "ERC721InvalidOperator(address)": [
        {
          "details": "Indicates a failure with the `operator` to be approved. Used in approvals.",
          "params": {
            "operator": "Address that may be allowed to operate on tokens without being their owner."
          }
        }
      ],
      "ERC721InvalidOwner(address)": [
        {
          "details": "Indicates that an address can't be an owner. For example, `address(0)` is a forbidden owner in EIP-20. Used in balance queries.",
          "params": {
            "owner": "Address of the current owner of a token."
          }
        }
      ],
      "ERC721InvalidReceiver(address)": [
        {
          "details": "Indicates a failure with the token `receiver`. Used in transfers.",
          "params": {
            "receiver": "Address to which tokens are being transferred."
          }
        }
      ],
      "ERC721InvalidSender(address)": [
        {
          "details": "Indicates a failure with the token `sender`. Used in transfers.",
          "params": {
            "sender": "Address whose tokens are being transferred."
          }
        }
      ],
      "ERC721NonexistentToken(uint256)": [
        {
          "details": "Indicates a `tokenId` whose `owner` is the zero address.",
          "params": {
            "tokenId": "Identifier number of a token."
          }
        }
      ],
      "ERC721OutOfBoundsIndex(address,uint256)": [
        {
          "details": "An `owner`'s token query was out of bounds for `index`. NOTE: The owner being `address(0)` indicates a global out of bounds index."
        }
      ]
    },
    "events": {
      "Approval(address,address,uint256)": {
        "details": "Emitted when `owner` enables `approved` to manage the `tokenId` token."
      },
      "ApprovalForAll(address,address,bool)": {
        "details": "Emitted when `owner` enables or disables (`approved`) `operator` to manage all of its assets."
      },
      "Transfer(address,address,uint256)": {
        "details": "Emitted when `tokenId` token is transferred from `from` to `to`."
      }
    },
    "kind": "dev",
    "methods": {
      "approve(address,uint256)": {
        "details": "See {IERC721-approve}."
      },
      "balanceOf(address)": {
        "details": "See {IERC721-balanceOf}."
      },
      "getApproved(uint256)": {
        "details": "See {IERC721-getApproved}."
      },
      "isApprovedForAll(address,address)": {
        "details": "See {IERC721-isApprovedForAll}."
      },
      "name()": {
        "details": "See {IERC721Metadata-name}."
      },
      "ownerOf(uint256)": {
        "details": "See {IERC721-ownerOf}."
      },
      "safeTransferFrom(address,address,uint256)": {
        "details": "See {IERC721-safeTransferFrom}."
      },
      "safeTransferFrom(address,address,uint256,bytes)": {
        "details": "See {IERC721-safeTransferFrom}."
      },
      "setApprovalForAll(address,bool)": {
        "details": "See {IERC721-setApprovalForAll}."
      },
      "supportsInterface(bytes4)": {
        "details": "See {IERC165-supportsInterface}."
      },
      "symbol()": {
        "details": "See {IERC721Metadata-symbol}."
      },
      "tokenByIndex(uint256)": {
        "details": "See {IERC721Enumerable-tokenByIndex}."
      },
      "tokenOfOwnerByIndex(address,uint256)": {
        "details": "See {IERC721Enumerable-tokenOfOwnerByIndex}."
      },
      "totalSupply()": {
        "details": "See {IERC721Enumerable-totalSupply}."
      },
      "transferFrom(address,address,uint256)": {
        "details": "See {IERC721-transferFrom}."
      }
    },
    "version": 1
  },
  "userdoc": {
    "kind": "user",
    "methods": {},
    "version": 1
  },
  "storageLayout": {
    "storage": [
      {
        "astId": 169,
        "contract": "contracts/MahJongNFT.sol:MahJongNFT",
        "label": "_name",
        "offset": 0,
        "slot": "0",
        "type": "t_string_storage"
      },
      {
        "astId": 171,
        "contract": "contracts/MahJongNFT.sol:MahJongNFT",
        "label": "_symbol",
        "offset": 0,
        "slot": "1",
        "type": "t_string_storage"
      },
      {
        "astId": 175,
        "contract": "contracts/MahJongNFT.sol:MahJongNFT",
        "label": "_owners",
        "offset": 0,
        "slot": "2",
        "type": "t_mapping(t_uint256,t_address)"
      },
      {
        "astId": 179,
        "contract": "contracts/MahJongNFT.sol:MahJongNFT",
        "label": "_balances",
        "offset": 0,
        "slot": "3",
        "type": "t_mapping(t_address,t_uint256)"
      },
      {
        "astId": 183,
        "contract": "contracts/MahJongNFT.sol:MahJongNFT",
        "label": "_tokenApprovals",
        "offset": 0,
        "slot": "4",
        "type": "t_mapping(t_uint256,t_address)"
      },
      {
        "astId": 189,
        "contract": "contracts/MahJongNFT.sol:MahJongNFT",
        "label": "_operatorApprovals",
        "offset": 0,
        "slot": "5",
        "type": "t_mapping(t_address,t_mapping(t_address,t_bool))"
      },
      {
        "astId": 1299,
        "contract": "contracts/MahJongNFT.sol:MahJongNFT",
        "label": "_ownedTokens",
        "offset": 0,
        "slot": "6",
        "type": "t_mapping(t_address,t_mapping(t_uint256,t_uint256))"
      },
      {
        "astId": 1303,
        "contract": "contracts/MahJongNFT.sol:MahJongNFT",
        "label": "_ownedTokensIndex",
        "offset": 0,
        "slot": "7",
        "type": "t_mapping(t_uint256,t_uint256)"
      },
      {
        "astId": 1306,
        "contract": "contracts/MahJongNFT.sol:MahJongNFT",
        "label": "_allTokens",
        "offset": 0,
        "slot": "8",
        "type": "t_array(t_uint256)dyn_storage"
      },
      {
        "astId": 1310,
        "contract": "contracts/MahJongNFT.sol:MahJongNFT",
        "label": "_allTokensIndex",
        "offset": 0,
        "slot": "9",
        "type": "t_mapping(t_uint256,t_uint256)"
      },
      {
        "astId": 3409,
        "contract": "contracts/MahJongNFT.sol:MahJongNFT",
        "label": "_currentTokenId",
        "offset": 0,
        "slot": "10",
        "type": "t_uint256"
      },
      {
        "astId": 3412,
        "contract": "contracts/MahJongNFT.sol:MahJongNFT",
        "label": "mahjongUnicodeStart",
        "offset": 0,
        "slot": "11",
        "type": "t_uint256"
      },
      {
        "astId": 3416,
        "contract": "contracts/MahJongNFT.sol:MahJongNFT",
        "label": "idToNumber",
        "offset": 0,
        "slot": "12",
        "type": "t_mapping(t_uint256,t_uint256)"
      },
      {
        "astId": 3431,
        "contract": "contracts/MahJongNFT.sol:MahJongNFT",
        "label": "price",
        "offset": 0,
        "slot": "13",
        "type": "t_uint256"
      }
    ],
    "types": {
      "t_address": {
        "encoding": "inplace",
        "label": "address",
        "numberOfBytes": "20"
      },
      "t_array(t_uint256)dyn_storage": {
        "base": "t_uint256",
        "encoding": "dynamic_array",
        "label": "uint256[]",
        "numberOfBytes": "32"
      },
      "t_bool": {
        "encoding": "inplace",
        "label": "bool",
        "numberOfBytes": "1"
      },
      "t_mapping(t_address,t_bool)": {
        "encoding": "mapping",
        "key": "t_address",
        "label": "mapping(address => bool)",
        "numberOfBytes": "32",
        "value": "t_bool"
      },
      "t_mapping(t_address,t_mapping(t_address,t_bool))": {
        "encoding": "mapping",
        "key": "t_address",
        "label": "mapping(address => mapping(address => bool))",
        "numberOfBytes": "32",
        "value": "t_mapping(t_address,t_bool)"
      },
      "t_mapping(t_address,t_mapping(t_uint256,t_uint256))": {
        "encoding": "mapping",
        "key": "t_address",
        "label": "mapping(address => mapping(uint256 => uint256))",
        "numberOfBytes": "32",
        "value": "t_mapping(t_uint256,t_uint256)"
      },
      "t_mapping(t_address,t_uint256)": {
        "encoding": "mapping",
        "key": "t_address",
        "label": "mapping(address => uint256)",
        "numberOfBytes": "32",
        "value": "t_uint256"
      },
      "t_mapping(t_uint256,t_address)": {
        "encoding": "mapping",
        "key": "t_uint256",
        "label": "mapping(uint256 => address)",
        "numberOfBytes": "32",
        "value": "t_address"
      },
      "t_mapping(t_uint256,t_uint256)": {
        "encoding": "mapping",
        "key": "t_uint256",
        "label": "mapping(uint256 => uint256)",
        "numberOfBytes": "32",
        "value": "t_uint256"
      },
      "t_string_storage": {
        "encoding": "bytes",
        "label": "string",
        "numberOfBytes": "32"
      },
      "t_uint256": {
        "encoding": "inplace",
        "label": "uint256",
        "numberOfBytes": "32"
      }
    }
  }
}